{
  "abi": [
    {
      "inputs": [],
      "name": "InvalidAuthenticatorData",
      "type": "error"
    },
    {
      "inputs": [],
      "name": "InvalidChallenge",
      "type": "error"
    },
    {
      "inputs": [],
      "name": "InvalidClientData",
      "type": "error"
    },
    {
      "inputs": [
        {
          "internalType": "bytes1",
          "name": "authenticatorDataFlagMask",
          "type": "bytes1"
        },
        {
          "internalType": "bytes",
          "name": "authenticatorData",
          "type": "bytes"
        },
        {
          "internalType": "bytes",
          "name": "clientData",
          "type": "bytes"
        },
        {
          "internalType": "bytes",
          "name": "clientChallenge",
          "type": "bytes"
        },
        {
          "internalType": "uint256",
          "name": "clientChallengeOffset",
          "type": "uint256"
        },
        {
          "internalType": "uint256[2]",
          "name": "rs",
          "type": "uint256[2]"
        },
        {
          "internalType": "uint256[2]",
          "name": "Q",
          "type": "uint256[2]"
        }
      ],
      "name": "verify",
      "outputs": [
        {
          "internalType": "bool",
          "name": "",
          "type": "bool"
        }
      ],
      "stateMutability": "nonpayable",
      "type": "function"
    }
  ],
  "bytecode": {
    "object": "0x608060405234801561001057600080fd5b506114d7806100206000396000f3fe608060405234801561001057600080fd5b506004361061002b5760003560e01c8063e60b570414610030575b600080fd5b61004361003e366004611316565b610057565b604051901515815260200160405180910390f35b60008061006a8c8c8c8c8c8c8c8c610087565b90506100778185856102df565b9c9b505050505050505050505050565b6000888888602081811061009d5761009d611414565b7fff0000000000000000000000000000000000000000000000000000000000000092013592909216166000039050610101576040517ffc93479200000000000000000000000000000000000000000000000000000000815260040160405180910390fd5b600083900361013c576040517f92fa6fd300000000000000000000000000000000000000000000000000000000815260040160405180910390fd5b600061018285858080601f016020809104026020016040519081016040528093929190818152602001838380828437600092019190915250600192508291506104419050565b805190915060009061019890850185898b611443565b6040516101a692919061146d565b60405180910390209050808280519060200120146101f0576040517febab5d2900000000000000000000000000000000000000000000000000000000815260040160405180910390fd5b60028a8a60028b8b60405161020692919061146d565b602060405180830381855afa158015610223573d6000803e3d6000fd5b5050506040513d601f19601f82011682018060405250810190610246919061147d565b60405160200161025893929190611496565b604080517fffffffffffffffffffffffffffffffffffffffffffffffffffffffffffffffe081840301815290829052610290916114a8565b602060405180830381855afa1580156102ad573d6000803e3d6000fd5b5050506040513d601f19601f820116820180604052508101906102d0919061147d565b9b9a5050505050505050505050565b60008235158061031057507fffffffff00000000ffffffffffffffffbce6faada7179e84f3b9cac2fc632551833510155b8061031d57506020830135155b8061034c57507fffffffff00000000ffffffffffffffffbce6faada7179e84f3b9cac2fc632551602084013510155b156103595750600061043a565b61036882356020840135610544565b6103745750600061043a565b60006103836020850135610669565b905060007fffffffff00000000ffffffffffffffffbce6faada7179e84f3b9cac2fc632551828709905060007fffffffff00000000ffffffffffffffffbce6faada7179e84f3b9cac2fc63255183873509905060006103e98635602088013585856106f4565b90507fffffffff00000000ffffffffffffffffbce6faada7179e84f3b9cac2fc63255187357fffffffff00000000ffffffffffffffffbce6faada7179e84f3b9cac2fc632551038208159450505050505b9392505050565b60608351801561053c576003600282010460021b60405192507f4142434445464748494a4b4c4d4e4f505152535455565758595a616263646566601f526106708515027f6768696a6b6c6d6e6f707172737475767778797a303132333435363738392d5f18603f52602083018181015b6003880197508751603f8160121c1651600053603f81600c1c1651600153603f8160061c1651600253603f8116516003535060005182526004820191508082106104b1576020016040527f3d3d000000000000000000000000000000000000000000000000000000000000600384066002048083039190915260008615159091029182900352900382525b509392505050565b600082158061056657506ffffffffeffffffffffffffffffffffff60601b1983145b8061056f575081155b8061058d57506ffffffffeffffffffffffffffffffffff60601b1982145b1561059a57506000610663565b60006ffffffffeffffffffffffffffffffffff60601b19838409905060006ffffffffeffffffffffffffffffffffff60601b19807fffffffff00000001000000000000000000000000fffffffffffffffffffffffc87096ffffffffeffffffffffffffffffffffff60601b19876ffffffffeffffffffffffffffffffffff60601b19898a09090890506ffffffffeffffffffffffffffffffffff60601b197f5ac635d8aa3a93e7b3ebbd55769886bc651d06b0cc53b0f63bce3c3e27d2604b8208919091149150505b92915050565b600061067361129e565b60208152602080820152602060408201528260608201527fffffffff00000000ffffffffffffffffbce6faada7179e84f3b9cac2fc63254f60808201527fffffffff00000000ffffffffffffffffbce6faada7179e84f3b9cac2fc63255160a082015260208160c08360006005600019f16106ed57600080fd5b5192915050565b600080808060ff61070361129e565b60008089158015610712575088155b15610727576000975050505050505050610f42565b6107737f6b17d1f2e12c4247f8bce6e563a440f277037d812deb33a0f4a13945d898c2967f4fe342e2fe1a7f9b8ee7eb4a7c0f9e162bce33576b315ececbb6406837bf51f58e8e610f4a565b809250819350505060018a851c1660018a861c1660011b015b806107ae5760018503945060018b861c1660018b871c1660011b01905061078c565b5060018a851c1660018a861c1660011b01965060018703610810577f6b17d1f2e12c4247f8bce6e563a440f277037d812deb33a0f4a13945d898c29697507f4fe342e2fe1a7f9b8ee7eb4a7c0f9e162bce33576b315ececbb6406837bf51f594505b6002870361081f578b97508a94505b6003870361082e578197508094505b60018403935060019650600195505b837fffffffffffffffffffffffffffffffffffffffffffffffffffffffffffffffff1115610eb1576ffffffffeffffffffffffffffffffffff60601b19856002096ffffffffeffffffffffffffffffffffff60601b198182096ffffffffeffffffffffffffffffffffff60601b19818b096ffffffffeffffffffffffffffffffffff60601b1982840992506ffffffffeffffffffffffffffffffffff60601b19806ffffffffeffffffffffffffffffffffff60601b198c8e086ffffffffeffffffffffffffffffffffff60601b198d6ffffffffeffffffffffffffffffffffff60601b19038f08096003096ffffffffeffffffffffffffffffffffff60601b198a850999506ffffffffeffffffffffffffffffffffff60601b198b84099a506ffffffffeffffffffffffffffffffffff60601b1980837fffffffff00000001000000000000000000000000fffffffffffffffffffffffd096ffffffffeffffffffffffffffffffffff60601b19838409089b506ffffffffeffffffffffffffffffffffff60601b1980836ffffffffeffffffffffffffffffffffff60601b19038e08820992506ffffffffeffffffffffffffffffffffff60601b19836ffffffffeffffffffffffffffffffffff60601b198b870908985060018e891c1660018e8a1c1660011b01905080610a4d57886ffffffffeffffffffffffffffffffffff60601b1903985050505050610ea6565b60018103610a9c577f6b17d1f2e12c4247f8bce6e563a440f277037d812deb33a0f4a13945d898c29693507f4fe342e2fe1a7f9b8ee7eb4a7c0f9e162bce33576b315ececbb6406837bf51f592505b60028103610aab578f93508e92505b60038103610aba578593508492505b8a610ad35750919950600198508897509550610ea69050565b6ffffffffeffffffffffffffffffffffff60601b19896ffffffffeffffffffffffffffffffffff60601b198c8609086ffffffffeffffffffffffffffffffffff60601b198d6ffffffffeffffffffffffffffffffffff60601b19036ffffffffeffffffffffffffffffffffff60601b198e880908935080610d3b5783610d3b576ffffffffeffffffffffffffffffffffff60601b198a7fffffffff00000001000000000000000000000000fffffffffffffffffffffffd0994506ffffffffeffffffffffffffffffffffff60601b1985860993506ffffffffeffffffffffffffffffffffff60601b19848e0992506ffffffffeffffffffffffffffffffffff60601b198486096ffffffffeffffffffffffffffffffffff60601b198d8f0891506ffffffffeffffffffffffffffffffffff60601b198d6ffffffffeffffffffffffffffffffffff60601b19038f0890506ffffffffeffffffffffffffffffffffff60601b1981830991506ffffffffeffffffffffffffffffffffff60601b198260030992506ffffffffeffffffffffffffffffffffff60601b198c82099b50506ffffffffeffffffffffffffffffffffff60601b198c85099b506ffffffffeffffffffffffffffffffffff60601b1980847fffffffff00000001000000000000000000000000fffffffffffffffffffffffd096ffffffffeffffffffffffffffffffffff60601b19848509089c506ffffffffeffffffffffffffffffffffff60601b19808e6ffffffffeffffffffffffffffffffffff60601b19038508830993506ffffffffeffffffffffffffffffffffff60601b19808b8709850899505050505050610ea6565b6ffffffffeffffffffffffffffffffffff60601b1984850991506ffffffffeffffffffffffffffffffffff60601b198483096ffffffffeffffffffffffffffffffffff60601b19838e099c506ffffffffeffffffffffffffffffffffff60601b19818d099b506ffffffffeffffffffffffffffffffffff60601b19838f096ffffffffeffffffffffffffffffffffff60601b1980827fffffffff00000001000000000000000000000000fffffffffffffffffffffffd096ffffffffeffffffffffffffffffffffff60601b19846ffffffffeffffffffffffffffffffffff60601b19036ffffffffeffffffffffffffffffffffff60601b19878809080893506ffffffffeffffffffffffffffffffffff60601b1980838e096ffffffffeffffffffffffffffffffffff60601b19856ffffffffeffffffffffffffffffffffff60601b19886ffffffffeffffffffffffffffffffffff60601b1903860809089b50505050809b50505050505b60018403935061083d565b86606084015260208352602080840152602060408401527fffffffff00000001000000000000000000000000fffffffffffffffffffffffd60808401526ffffffffeffffffffffffffffffffffff60601b1960a084015260208360c08560006005600019f1610f1f57600080fd5b6ffffffffeffffffffffffffffffffffff60601b19835189099750505050505050505b949350505050565b600080808086610f61578585935093505050610f9f565b84610f73578787935093505050610f9f565b610f8288886001808a8a610fa8565b929a5090985092509050610f98888884846111a1565b9350935050505b94509492505050565b60008060008088600003610fc757508492508391506001905080611194565b6ffffffffeffffffffffffffffffffffff60601b199889039889818988090894506ffffffffeffffffffffffffffffffffff60601b198a6ffffffffeffffffffffffffffffffffff60601b19036ffffffffeffffffffffffffffffffffff60601b198a89090895506ffffffffeffffffffffffffffffffffff60601b1986870993506ffffffffeffffffffffffffffffffffff60601b1986850992506ffffffffeffffffffffffffffffffffff60601b1984890991506ffffffffeffffffffffffffffffffffff60601b1983880990506ffffffffeffffffffffffffffffffffff60601b19848b0997506ffffffffeffffffffffffffffffffffff60601b1980897fffffffff00000001000000000000000000000000fffffffffffffffffffffffd096ffffffffeffffffffffffffffffffffff60601b19856ffffffffeffffffffffffffffffffffff60601b19036ffffffffeffffffffffffffffffffffff60601b19898a09080893506ffffffffeffffffffffffffffffffffff60601b1980848b096ffffffffeffffffffffffffffffffffff60601b19876ffffffffeffffffffffffffffffffffff60601b19886ffffffffeffffffffffffffffffffffff60601b19038d08090892505b9650965096509692505050565b60008060006111af84611226565b90506ffffffffeffffffffffffffffffffffff60601b19818709915060006ffffffffeffffffffffffffffffffffff60601b1982870990506ffffffffeffffffffffffffffffffffff60601b1981820991506ffffffffeffffffffffffffffffffffff60601b198289099350505094509492505050565b600061123061129e565b60208152602080820152602060408201528260608201527fffffffff00000001000000000000000000000000fffffffffffffffffffffffd60808201526ffffffffeffffffffffffffffffffffff60601b1960a082015260208160c08360006005600019f16106ed57600080fd5b6040518060c001604052806006906020820280368337509192915050565b60008083601f8401126112ce57600080fd5b50813567ffffffffffffffff8111156112e657600080fd5b6020830191508360208285010111156112fe57600080fd5b9250929050565b806040810183101561066357600080fd5b6000806000806000806000806000806101208b8d03121561133657600080fd5b8a357fff000000000000000000000000000000000000000000000000000000000000008116811461136657600080fd5b995060208b013567ffffffffffffffff8082111561138357600080fd5b61138f8e838f016112bc565b909b50995060408d01359150808211156113a857600080fd5b6113b48e838f016112bc565b909950975060608d01359150808211156113cd57600080fd5b506113da8d828e016112bc565b90965094505060808b013592506113f48c60a08d01611305565b91506114038c60e08d01611305565b90509295989b9194979a5092959850565b7f4e487b7100000000000000000000000000000000000000000000000000000000600052603260045260246000fd5b6000808585111561145357600080fd5b8386111561146057600080fd5b5050820193919092039150565b8183823760009101908152919050565b60006020828403121561148f57600080fd5b5051919050565b82848237909101908152602001919050565b6000825160005b818110156114c957602081860181015185830152016114af565b50600092019182525091905056",
    "linkReferences": {}
  },
  "methodIdentifiers": {
    "verify(bytes1,bytes,bytes,bytes,uint256,uint256[2],uint256[2])": "e60b5704"
  },
  "id": 72
}