{
  "abi": [
    {
      "inputs": [
        {
          "internalType": "contract IEntryPoint",
          "name": "_entryPoint",
          "type": "address"
        },
        {
          "internalType": "address",
          "name": "webAuthnVerifier",
          "type": "address"
        },
        {
          "internalType": "address",
          "name": "loginService",
          "type": "address"
        }
      ],
      "stateMutability": "nonpayable",
      "type": "constructor"
    },
    {
      "inputs": [],
      "name": "accountImplementation",
      "outputs": [
        {
          "internalType": "contract WebAuthnAccount",
          "name": "",
          "type": "address"
        }
      ],
      "stateMutability": "view",
      "type": "function"
    },
    {
      "inputs": [
        {
          "internalType": "string",
          "name": "login",
          "type": "string"
        },
        {
          "internalType": "uint256",
          "name": "salt",
          "type": "uint256"
        }
      ],
      "name": "createAccount",
      "outputs": [
        {
          "internalType": "contract WebAuthnAccount",
          "name": "",
          "type": "address"
        }
      ],
      "stateMutability": "nonpayable",
      "type": "function"
    },
    {
      "inputs": [
        {
          "internalType": "string",
          "name": "login",
          "type": "string"
        },
        {
          "internalType": "bytes",
          "name": "credId",
          "type": "bytes"
        },
        {
          "internalType": "uint256[2]",
          "name": "pubKeyCoordinates",
          "type": "uint256[2]"
        },
        {
          "internalType": "uint256",
          "name": "salt",
          "type": "uint256"
        }
      ],
      "name": "createAccount",
      "outputs": [
        {
          "internalType": "contract WebAuthnAccount",
          "name": "",
          "type": "address"
        }
      ],
      "stateMutability": "nonpayable",
      "type": "function"
    },
    {
      "inputs": [
        {
          "internalType": "string",
          "name": "login",
          "type": "string"
        },
        {
          "internalType": "uint256",
          "name": "salt",
          "type": "uint256"
        }
      ],
      "name": "getAddress",
      "outputs": [
        {
          "internalType": "address",
          "name": "",
          "type": "address"
        }
      ],
      "stateMutability": "view",
      "type": "function"
    }
  ],
  "bytecode": {
    "object": "0x60a060405234801561001057600080fd5b50604051615fde380380615fde83398101604081905261002f916100be565b8282823060405161003f90610099565b6001600160a01b039485168152928416602084015290831660408301529091166060820152608001604051809103906000f080158015610083573d6000803e3d6000fd5b506001600160a01b03166080525061010b915050565b6152a580610d3983390190565b6001600160a01b03811681146100bb57600080fd5b50565b6000806000606084860312156100d357600080fd5b83516100de816100a6565b60208501519093506100ef816100a6565b6040850151909250610100816100a6565b809150509250925092565b608051610bff61013a60003960008181605d0152818161011f0152818161024401526103580152610bff6000f3fe60806040523480156200001157600080fd5b5060043610620000525760003560e01c806311464fbe146200005757806321ec125314620000a85780636586ace614620000bf578063a4164f8614620000d6575b600080fd5b6200007f7f000000000000000000000000000000000000000000000000000000000000000081565b60405173ffffffffffffffffffffffffffffffffffffffff909116815260200160405180910390f35b6200007f620000b93660046200054b565b620000ed565b6200007f620000d03660046200054b565b62000202565b6200007f620000e73660046200059b565b62000316565b6000620001f88260001b604051806020016200010990620004f1565b6020820181038252601f19601f820116604052507f00000000000000000000000000000000000000000000000000000000000000008787604051602401620001539291906200065d565b60408051601f19818403018152918152602080830180517bffffffffffffffffffffffffffffffffffffffffffffffffffffffff167ff62d1888000000000000000000000000000000000000000000000000000000001790529051620001bc9392910162000699565b60408051601f1981840301815290829052620001dc9291602001620006eb565b60405160208183030381529060405280519060200120620004be565b90505b9392505050565b60008062000212858585620000ed565b905073ffffffffffffffffffffffffffffffffffffffff81163b80156200023c57509050620001fb565b60008460001b7f00000000000000000000000000000000000000000000000000000000000000008888604051602401620002789291906200065d565b60408051601f198184030181529181526020820180517bffffffffffffffffffffffffffffffffffffffffffffffffffffffff167ff62d18880000000000000000000000000000000000000000000000000000000017905251620002dc90620004f1565b620002e992919062000699565b8190604051809103906000f59050801580156200030a573d6000803e3d6000fd5b50979650505050505050565b60008062000326888885620000ed565b905073ffffffffffffffffffffffffffffffffffffffff81163b80156200035057509050620004b4565b60008460001b7f00000000000000000000000000000000000000000000000000000000000000008b8b6040516024016200038c9291906200065d565b60408051601f198184030181529181526020820180517bffffffffffffffffffffffffffffffffffffffffffffffffffffffff167ff62d18880000000000000000000000000000000000000000000000000000000017905251620003f090620004f1565b620003fd92919062000699565b8190604051809103906000f59050801580156200041e573d6000803e3d6000fd5b506040517fff69191d00000000000000000000000000000000000000000000000000000000815290915073ffffffffffffffffffffffffffffffffffffffff82169063ff69191d906200047a908b908b908b906004016200071e565b600060405180830381600087803b1580156200049557600080fd5b505af1158015620004aa573d6000803e3d6000fd5b5092955050505050505b9695505050505050565b6000620001fb8383306000604051836040820152846020820152828152600b8101905060ff815360559020949350505050565b6104b8806200074783390190565b60008083601f8401126200051257600080fd5b50813567ffffffffffffffff8111156200052b57600080fd5b6020830191508360208285010111156200054457600080fd5b9250929050565b6000806000604084860312156200056157600080fd5b833567ffffffffffffffff8111156200057957600080fd5b6200058786828701620004ff565b909790965060209590950135949350505050565b60008060008060008060a08789031215620005b557600080fd5b863567ffffffffffffffff80821115620005ce57600080fd5b620005dc8a838b01620004ff565b90985096506020890135915080821115620005f657600080fd5b506200060589828a01620004ff565b90955093505060808701888111156200061d57600080fd5b60408801925080359150509295509295509295565b818352818160208501375060006020828401015260006020601f19601f840116840101905092915050565b602081526000620001f860208301848662000632565b60005b838110156200069057818101518382015260200162000676565b50506000910152565b73ffffffffffffffffffffffffffffffffffffffff831681526040602082015260008251806040840152620006d681606085016020870162000673565b601f01601f1916919091016060019392505050565b60008351620006ff81846020880162000673565b8351908301906200071581836020880162000673565b01949350505050565b6060815260006200073460608301858762000632565b9050604083602084013794935050505056fe60806040526040516104b83803806104b8833981016040819052610022916102de565b61002e82826000610035565b50506103fb565b61003e83610061565b60008251118061004b5750805b1561005c5761005a83836100a1565b505b505050565b61006a816100cd565b6040516001600160a01b038216907fbc7cd75a20ee27fd9adebab32041f755214dbc6bffa90cc0225b39da2e5c2d3b90600090a250565b60606100c6838360405180606001604052806027815260200161049160279139610180565b9392505050565b6001600160a01b0381163b61013f5760405162461bcd60e51b815260206004820152602d60248201527f455243313936373a206e657720696d706c656d656e746174696f6e206973206e60448201526c1bdd08184818dbdb9d1c9858dd609a1b60648201526084015b60405180910390fd5b7f360894a13ba1a3210667c828492db98dca3e2076cc3735a920a3ca505d382bbc80546001600160a01b0319166001600160a01b0392909216919091179055565b6060600080856001600160a01b03168560405161019d91906103ac565b600060405180830381855af49150503d80600081146101d8576040519150601f19603f3d011682016040523d82523d6000602084013e6101dd565b606091505b5090925090506101ef868383876101f9565b9695505050505050565b60608315610268578251600003610261576001600160a01b0385163b6102615760405162461bcd60e51b815260206004820152601d60248201527f416464726573733a2063616c6c20746f206e6f6e2d636f6e74726163740000006044820152606401610136565b5081610272565b610272838361027a565b949350505050565b81511561028a5781518083602001fd5b8060405162461bcd60e51b815260040161013691906103c8565b634e487b7160e01b600052604160045260246000fd5b60005b838110156102d55781810151838201526020016102bd565b50506000910152565b600080604083850312156102f157600080fd5b82516001600160a01b038116811461030857600080fd5b60208401519092506001600160401b038082111561032557600080fd5b818501915085601f83011261033957600080fd5b81518181111561034b5761034b6102a4565b604051601f8201601f19908116603f01168101908382118183101715610373576103736102a4565b8160405282815288602084870101111561038c57600080fd5b61039d8360208301602088016102ba565b80955050505050509250929050565b600082516103be8184602087016102ba565b9190910192915050565b60208152600082518060208401526103e78160408501602087016102ba565b601f01601f19169190910160400192915050565b6088806104096000396000f3fe608060405236601057600e6013565b005b600e5b601f601b6021565b6065565b565b600060607f360894a13ba1a3210667c828492db98dca3e2076cc3735a920a3ca505d382bbc5473ffffffffffffffffffffffffffffffffffffffff1690565b905090565b3660008037600080366000845af43d6000803e8080156083573d6000f35b3d6000fd416464726573733a206c6f772d6c6576656c2064656c65676174652063616c6c206661696c65646101206040523060805260088054600160ff199182168117909255600c805490911690911790553480156200003357600080fd5b50604051620052a5380380620052a5833981016040819052620000569162000164565b6001600160a01b038085166101005283811660a05282811660c052811660e052620000806200008a565b50505050620001cc565b600054610100900460ff1615620000f75760405162461bcd60e51b815260206004820152602760248201527f496e697469616c697a61626c653a20636f6e747261637420697320696e697469604482015266616c697a696e6760c81b606482015260840160405180910390fd5b60005460ff9081161462000149576000805460ff191660ff9081179091556040519081527f7f26b83ff96e1f2b6a682f133852f6798a09c465da95921460cefb38474024989060200160405180910390a15b565b6001600160a01b03811681146200016157600080fd5b50565b600080600080608085870312156200017b57600080fd5b845162000188816200014b565b60208601519094506200019b816200014b565b6040860151909350620001ae816200014b565b6060860151909250620001c1816200014b565b939692955090935050565b60805160a05160c05160e05161010051615024620002816000396000818161052301528181610e2601528181610ed401528181611812015281816118d001528181611d7d01528181612151015261232e0152600081816105d801526123910152600081816103fc01528181613074015261317b0152600081816102e7015281816128f90152612b750152600081816109c901528181610a6401528181610f9001528181611026015261115501526150246000f3fe60806040526004361061021c5760003560e01c806385226c811161011d578063c399ec88116100b0578063e20c9f711161007f578063f62d188811610064578063f62d18881461068a578063fa7626d4146106aa578063ff69191d146106c457600080fd5b8063e20c9f711461062f578063f23a6e611461064457600080fd5b8063c399ec88146105b1578063c45a0155146105c6578063d087d288146105fa578063d2a57ad11461060f57600080fd5b8063b5508aa9116100ec578063b5508aa914610547578063b61d27f61461055c578063ba414fa61461057c578063bc197c811461059157600080fd5b806385226c81146104b0578063916a17c6146104d25780639f070142146104e7578063b0d691fe1461051457600080fd5b80633e5e3c23116101b05780634a58db191161017f5780634f1ef286116101645780634f1ef2861461046657806352d1902d1461047957806366d9a9a01461048e57600080fd5b80634a58db191461043e5780634d44560d1461044657600080fd5b80633e5e3c23146103c05780633f7286f4146103d55780634640fc4d146103ea57806347e1da2a1461041e57600080fd5b80631ed7831c116101ec5780631ed7831c1461032e5780632ade3880146103505780633659cfe6146103725780633a871cdd1461039257600080fd5b806223de291461022857806301ffc9a71461024f578063150b7a02146102845780631c35b2f8146102d557600080fd5b3661022357005b600080fd5b34801561023457600080fd5b5061024d610243366004613844565b5050505050505050565b005b34801561025b57600080fd5b5061026f61026a3660046138f5565b6106e4565b60405190151581526020015b60405180910390f35b34801561029057600080fd5b506102a461029f366004613937565b6107c9565b6040517fffffffff00000000000000000000000000000000000000000000000000000000909116815260200161027b565b3480156102e157600080fd5b506103097f000000000000000000000000000000000000000000000000000000000000000081565b60405173ffffffffffffffffffffffffffffffffffffffff909116815260200161027b565b34801561033a57600080fd5b506103436107f4565b60405161027b91906139aa565b34801561035c57600080fd5b50610365610863565b60405161027b9190613aac565b34801561037e57600080fd5b5061024d61038d366004613b54565b6109b2565b34801561039e57600080fd5b506103b26103ad366004613b71565b610b88565b60405190815260200161027b565b3480156103cc57600080fd5b50610343610bae565b3480156103e157600080fd5b50610343610c1b565b3480156103f657600080fd5b506103097f000000000000000000000000000000000000000000000000000000000000000081565b34801561042a57600080fd5b5061024d610439366004613c0a565b610c88565b61024d610e24565b34801561045257600080fd5b5061024d610461366004613ca4565b610eca565b61024d610474366004613d58565b610f79565b34801561048557600080fd5b506103b261113b565b34801561049a57600080fd5b506104a361120d565b60405161027b9190613deb565b3480156104bc57600080fd5b506104c5611315565b60405161027b9190613ee1565b3480156104de57600080fd5b506104a36113e5565b3480156104f357600080fd5b50610507610502366004613ef4565b6114ed565b60405161027b9190613f45565b34801561052057600080fd5b507f0000000000000000000000000000000000000000000000000000000000000000610309565b34801561055357600080fd5b506104c561153b565b34801561056857600080fd5b5061024d610577366004613f58565b61160b565b34801561058857600080fd5b5061026f61165a565b34801561059d57600080fd5b506102a46105ac366004613fb4565b61179e565b3480156105bd57600080fd5b506103b26117cc565b3480156105d257600080fd5b506103097f000000000000000000000000000000000000000000000000000000000000000081565b34801561060657600080fd5b506103b2611883565b34801561061b57600080fd5b5061024d61062a366004614052565b6118ff565b34801561063b57600080fd5b5061034361196d565b34801561065057600080fd5b506102a461065f3660046140ad565b7ff23a6e61000000000000000000000000000000000000000000000000000000009695505050505050565b34801561069657600080fd5b5061024d6106a5366004614117565b6119da565b3480156106b657600080fd5b5060085461026f9060ff1681565b3480156106d057600080fd5b5061024d6106df366004614052565b611b55565b60007fffffffff0000000000000000000000000000000000000000000000000000000082167f150b7a0200000000000000000000000000000000000000000000000000000000148061077757507fffffffff0000000000000000000000000000000000000000000000000000000082167f4e2312e000000000000000000000000000000000000000000000000000000000145b806107c357507fffffffff0000000000000000000000000000000000000000000000000000000082167f01ffc9a700000000000000000000000000000000000000000000000000000000145b92915050565b7f150b7a02000000000000000000000000000000000000000000000000000000005b95945050505050565b6060601580548060200260200160405190810160405280929190818152602001828054801561085957602002820191906000526020600020905b815473ffffffffffffffffffffffffffffffffffffffff16815260019091019060200180831161082e575b5050505050905090565b6060601c805480602002602001604051908101604052809291908181526020016000905b828210156109a9576000848152602080822060408051808201825260028702909201805473ffffffffffffffffffffffffffffffffffffffff168352600181018054835181870281018701909452808452939591948681019491929084015b8282101561099257838290600052602060002001805461090590614159565b80601f016020809104026020016040519081016040528092919081815260200182805461093190614159565b801561097e5780601f106109535761010080835404028352916020019161097e565b820191906000526020600020905b81548152906001019060200180831161096157829003601f168201915b5050505050815260200190600101906108e6565b505050508152505081526020019060010190610887565b50505050905090565b73ffffffffffffffffffffffffffffffffffffffff7f0000000000000000000000000000000000000000000000000000000000000000163003610a625760405162461bcd60e51b815260206004820152602c60248201527f46756e6374696f6e206d7573742062652063616c6c6564207468726f7567682060448201527f64656c656761746563616c6c000000000000000000000000000000000000000060648201526084015b60405180910390fd5b7f000000000000000000000000000000000000000000000000000000000000000073ffffffffffffffffffffffffffffffffffffffff16610ad77f360894a13ba1a3210667c828492db98dca3e2076cc3735a920a3ca505d382bbc5473ffffffffffffffffffffffffffffffffffffffff1690565b73ffffffffffffffffffffffffffffffffffffffff1614610b605760405162461bcd60e51b815260206004820152602c60248201527f46756e6374696f6e206d7573742062652063616c6c6564207468726f7567682060448201527f6163746976652070726f787900000000000000000000000000000000000000006064820152608401610a59565b610b6981611bb0565b60408051600080825260208201909252610b8591839190611bb8565b50565b6000610b92611d65565b610b9c8484611dec565b9050610ba7826120ce565b9392505050565b606060178054806020026020016040519081016040528092919081815260200182805480156108595760200282019190600052602060002090815473ffffffffffffffffffffffffffffffffffffffff16815260019091019060200180831161082e575050505050905090565b606060168054806020026020016040519081016040528092919081815260200182805480156108595760200282019190600052602060002090815473ffffffffffffffffffffffffffffffffffffffff16815260019091019060200180831161082e575050505050905090565b610c90612139565b8481148015610ca65750821580610ca657508281145b610cf25760405162461bcd60e51b815260206004820152601260248201527f77726f6e67206172726179206c656e67746800000000000000000000000000006044820152606401610a59565b6000839003610da85760005b85811015610da257610d90878783818110610d1b57610d1b6141ac565b9050602002016020810190610d309190613b54565b6000858585818110610d4457610d446141ac565b9050602002810190610d5691906141db565b8080601f0160208091040260200160405190810160405280939291908181526020018383808284376000920191909152506121c892505050565b80610d9a8161426f565b915050610cfe565b50610e1c565b60005b85811015610e1a57610e08878783818110610dc857610dc86141ac565b9050602002016020810190610ddd9190613b54565b868684818110610def57610def6141ac565b90506020020135858585818110610d4457610d446141ac565b80610e128161426f565b915050610dab565b505b505050505050565b7f00000000000000000000000000000000000000000000000000000000000000006040517fb760faf900000000000000000000000000000000000000000000000000000000815230600482015273ffffffffffffffffffffffffffffffffffffffff919091169063b760faf99034906024016000604051808303818588803b158015610eaf57600080fd5b505af1158015610ec3573d6000803e3d6000fd5b5050505050565b610ed2612245565b7f00000000000000000000000000000000000000000000000000000000000000006040517f205c287800000000000000000000000000000000000000000000000000000000815273ffffffffffffffffffffffffffffffffffffffff848116600483015260248201849052919091169063205c287890604401600060405180830381600087803b158015610f6557600080fd5b505af1158015610e1c573d6000803e3d6000fd5b73ffffffffffffffffffffffffffffffffffffffff7f00000000000000000000000000000000000000000000000000000000000000001630036110245760405162461bcd60e51b815260206004820152602c60248201527f46756e6374696f6e206d7573742062652063616c6c6564207468726f7567682060448201527f64656c656761746563616c6c00000000000000000000000000000000000000006064820152608401610a59565b7f000000000000000000000000000000000000000000000000000000000000000073ffffffffffffffffffffffffffffffffffffffff166110997f360894a13ba1a3210667c828492db98dca3e2076cc3735a920a3ca505d382bbc5473ffffffffffffffffffffffffffffffffffffffff1690565b73ffffffffffffffffffffffffffffffffffffffff16146111225760405162461bcd60e51b815260206004820152602c60248201527f46756e6374696f6e206d7573742062652063616c6c6564207468726f7567682060448201527f6163746976652070726f787900000000000000000000000000000000000000006064820152608401610a59565b61112b82611bb0565b61113782826001611bb8565b5050565b60003073ffffffffffffffffffffffffffffffffffffffff7f000000000000000000000000000000000000000000000000000000000000000016146111e85760405162461bcd60e51b815260206004820152603860248201527f555550535570677261646561626c653a206d757374206e6f742062652063616c60448201527f6c6564207468726f7567682064656c656761746563616c6c00000000000000006064820152608401610a59565b507f360894a13ba1a3210667c828492db98dca3e2076cc3735a920a3ca505d382bbc90565b6060601a805480602002602001604051908101604052809291908181526020016000905b828210156109a957600084815260209081902060408051808201825260028602909201805473ffffffffffffffffffffffffffffffffffffffff1683526001810180548351818702810187019094528084529394919385830193928301828280156112fd57602002820191906000526020600020906000905b82829054906101000a900460e01b7bffffffffffffffffffffffffffffffffffffffffffffffffffffffff1916815260200190600401906020826003010492830192600103820291508084116112aa5790505b50505050508152505081526020019060010190611231565b60606019805480602002602001604051908101604052809291908181526020016000905b828210156109a957838290600052602060002001805461135890614159565b80601f016020809104026020016040519081016040528092919081815260200182805461138490614159565b80156113d15780601f106113a6576101008083540402835291602001916113d1565b820191906000526020600020905b8154815290600101906020018083116113b457829003601f168201915b505050505081526020019060010190611339565b6060601b805480602002602001604051908101604052809291908181526020016000905b828210156109a957600084815260209081902060408051808201825260028602909201805473ffffffffffffffffffffffffffffffffffffffff1683526001810180548351818702810187019094528084529394919385830193928301828280156114d557602002820191906000526020600020906000905b82829054906101000a900460e01b7bffffffffffffffffffffffffffffffffffffffffffffffffffffffff1916815260200190600401906020826003010492830192600103820291508084116114825790505b50505050508152505081526020019060010190611409565b60606114fb828486886142a7565b8080601f0160208091040260200160405190810160405280939291908181526020018383808284376000920191909152509293505050505b949350505050565b60606018805480602002602001604051908101604052809291908181526020016000905b828210156109a957838290600052602060002001805461157e90614159565b80601f01602080910402602001604051908101604052809291908181526020018280546115aa90614159565b80156115f75780601f106115cc576101008083540402835291602001916115f7565b820191906000526020600020905b8154815290600101906020018083116115da57829003601f168201915b50505050508152602001906001019061155f565b611613612139565b611654848484848080601f0160208091040260200160405190810160405280939291908181526020018383808284376000920191909152506121c892505050565b50505050565b600854600090610100900460ff161561167c5750600854610100900460ff1690565b6000737109709ecfa91a80626ff3989d68f67f5b1dd12d3b156117995760408051737109709ecfa91a80626ff3989d68f67f5b1dd12d602082018190527f6661696c6564000000000000000000000000000000000000000000000000000082840152825180830384018152606083019093526000929091611721917f667f9d70ca411d70ead50d8d5c22070dafc36ad75f3dcf5e7237b22ade9aecc4916080016142d1565b60408051601f198184030181529082905261173b91614319565b6000604051808303816000865af19150503d8060008114611778576040519150601f19603f3d011682016040523d82523d6000602084013e61177d565b606091505b50915050808060200190518101906117959190614335565b9150505b919050565b7fbc197c81000000000000000000000000000000000000000000000000000000005b98975050505050505050565b6040517f70a0823100000000000000000000000000000000000000000000000000000000815230600482015260009073ffffffffffffffffffffffffffffffffffffffff7f000000000000000000000000000000000000000000000000000000000000000016906370a08231906024015b602060405180830381865afa15801561185a573d6000803e3d6000fd5b505050506040513d601f19601f8201168201806040525081019061187e9190614357565b905090565b6040517f35567e1a0000000000000000000000000000000000000000000000000000000081523060048201526000602482018190529073ffffffffffffffffffffffffffffffffffffffff7f000000000000000000000000000000000000000000000000000000000000000016906335567e1a9060440161183d565b611907612245565b61196883838080601f0160208091040260200160405190810160405280939291908181526020018383808284376000920191909152505060408051808201825292508591506002908390839080828437600092019190915250612294915050565b505050565b606060148054806020026020016040519081016040528092919081815260200182805480156108595760200282019190600052602060002090815473ffffffffffffffffffffffffffffffffffffffff16815260019091019060200180831161082e575050505050905090565b600054610100900460ff16158080156119fa5750600054600160ff909116105b80611a145750303b158015611a14575060005460ff166001145b611a865760405162461bcd60e51b815260206004820152602e60248201527f496e697469616c697a61626c653a20636f6e747261637420697320616c72656160448201527f647920696e697469616c697a65640000000000000000000000000000000000006064820152608401610a59565b600080547fffffffffffffffffffffffffffffffffffffffffffffffffffffffffffffff001660011790558015611ae457600080547fffffffffffffffffffffffffffffffffffffffffffffffffffffffffffff00ff166101001790555b611aee83836122f0565b801561196857600080547fffffffffffffffffffffffffffffffffffffffffffffffffffffffffffff00ff169055604051600181527f7f26b83ff96e1f2b6a682f133852f6798a09c465da95921460cefb38474024989060200160405180910390a1505050565b611b5d612379565b601e5460ff16156119075760405162461bcd60e51b815260206004820152601860248201527f6669727374207369676e657220616c72656164792073657400000000000000006044820152606401610a59565b610b85612245565b7f4910fdfa16fed3260ed0e7147f7cc6da11a60208b5b9406d12a635614ffd91435460ff1615611beb57611968836123fe565b8273ffffffffffffffffffffffffffffffffffffffff166352d1902d6040518163ffffffff1660e01b8152600401602060405180830381865afa925050508015611c52575060408051601f3d908101601f19168201909252611c4f91810190614357565b60015b611cc45760405162461bcd60e51b815260206004820152602e60248201527f45524331393637557067726164653a206e657720696d706c656d656e7461746960448201527f6f6e206973206e6f7420555550530000000000000000000000000000000000006064820152608401610a59565b7f360894a13ba1a3210667c828492db98dca3e2076cc3735a920a3ca505d382bbc8114611d595760405162461bcd60e51b815260206004820152602960248201527f45524331393637557067726164653a20756e737570706f727465642070726f7860448201527f6961626c655555494400000000000000000000000000000000000000000000006064820152608401610a59565b506119688383836124ee565b3373ffffffffffffffffffffffffffffffffffffffff7f00000000000000000000000000000000000000000000000000000000000000001614611dea5760405162461bcd60e51b815260206004820152601c60248201527f6163636f756e743a206e6f742066726f6d20456e747279506f696e74000000006044820152606401610a59565b565b60008080611dfe6101408601866141db565b905011611e0c576000611e36565b611e1a6101408501856141db565b6000818110611e2b57611e2b6141ac565b919091013560f81c90505b6003811115611e4757611e47614370565b90506000816003811115611e5d57611e5d614370565b03611ed557611ea06040518060400160405280601181526020017f7369676e617475726554797065203d2030000000000000000000000000000000815250612513565b60006040518061050001604052806104e08152602001614b446104e091399050611ecc81856001612584565b925050506107c3565b6001816003811115611ee957611ee9614370565b03611f8157611f2c6040518060400160405280601181526020017f7369676e617475726554797065203d2031000000000000000000000000000000815250612513565b611f79611f3d6101408601866141db565b8080601f01602080910402602001604051908101604052809392919081815260200183838082843760009201829052508893509150612a319050565b9150506107c3565b6002816003811115611f9557611f95614370565b0361202357611fd86040518060400160405280601181526020017f7369676e617475726554797065203d2032000000000000000000000000000000815250612513565b611f79611fe96101408601866141db565b8080601f016020809104026020016040519081016040528093929190818152602001838380828437600092019190915250612ca992505050565b600381600381111561203757612037614370565b036120c75761207a6040518060400160405280601181526020017f7369676e617475726554797065203d2033000000000000000000000000000000815250612513565b611f7961208b6101408601866141db565b8080601f016020809104026020016040519081016040528093929190818152602001838380828437600092018290525088935091506125849050565b5092915050565b8015610b855760405160009033907fffffffffffffffffffffffffffffffffffffffffffffffffffffffffffffffff90849084818181858888f193505050503d8060008114610ec3576040519150601f19603f3d011682016040523d82523d6000602084013e610ec3565b3373ffffffffffffffffffffffffffffffffffffffff7f000000000000000000000000000000000000000000000000000000000000000016148061217c57503330145b611dea5760405162461bcd60e51b815260206004820181905260248201527f6163636f756e743a206e6f74204f776e6572206f7220456e747279506f696e746044820152606401610a59565b6000808473ffffffffffffffffffffffffffffffffffffffff1684846040516121f19190614319565b60006040518083038185875af1925050503d806000811461222e576040519150601f19603f3d011682016040523d82523d6000602084013e612233565b606091505b509150915081610ec357805160208201fd5b333014611dea5760405162461bcd60e51b815260206004820152600a60248201527f6f6e6c79206f776e6572000000000000000000000000000000000000000000006044820152606401610a59565b80601f836040516122a59190614319565b9081526040519081900360200190206122bf91600261376f565b50601e805460ff169060006122d38361439f565b91906101000a81548160ff021916908360ff160217905550505050565b601d6122fd828483614404565b50601d60405161230d9190614500565b6040519081900381209073ffffffffffffffffffffffffffffffffffffffff7f000000000000000000000000000000000000000000000000000000000000000016907fcc8d54b06e49fa725f7cd31eca14c929e956281b71b4823d38fda2857c70dcd290600090a35050565b3373ffffffffffffffffffffffffffffffffffffffff7f00000000000000000000000000000000000000000000000000000000000000001614611dea5760405162461bcd60e51b815260206004820152600c60248201527f6f6e6c7920666163746f727900000000000000000000000000000000000000006044820152606401610a59565b73ffffffffffffffffffffffffffffffffffffffff81163b6124885760405162461bcd60e51b815260206004820152602d60248201527f455243313936373a206e657720696d706c656d656e746174696f6e206973206e60448201527f6f74206120636f6e7472616374000000000000000000000000000000000000006064820152608401610a59565b7f360894a13ba1a3210667c828492db98dca3e2076cc3735a920a3ca505d382bbc80547fffffffffffffffffffffffff00000000000000000000000000000000000000001673ffffffffffffffffffffffffffffffffffffffff92909216919091179055565b6124f783612e19565b6000825111806125045750805b15611968576116548383612e66565b610b85816040516024016125279190613f45565b60408051601f198184030181529190526020810180517bffffffffffffffffffffffffffffffffffffffffffffffffffffffff167f41304fac00000000000000000000000000000000000000000000000000000000179052612e8b565b600080600080600080600080600061259b8c612eac565b98509850985098509850985098509850506000806000806125bb85612eee565b9450945094509450508d61265957601d80546125d690614159565b80601f016020809104026020016040519081016040528092919081815260200182805461260290614159565b801561264f5780601f106126245761010080835404028352916020019161264f565b820191906000526020600020905b81548152906001019060200180831161263257829003601f168201915b505050505061265b565b835b60405160200161266b9190614319565b60405160208183030381529060405280519060200120846040516020016126929190614319565b60405160208183030381529060405280519060200120146126f55760405162461bcd60e51b815260206004820152601760248201527f696e636f7272656374206c6f67696e20666f72207369670000000000000000006044820152606401610a59565b8d1561270d576127088383836001612f23565b61271a565b61271a8383836000612f23565b5050505089612729578a612732565b61273285614594565b61273b86614594565b146127885760405162461bcd60e51b815260206004820152601f60248201527f6368616c6c656e6765202620757365724f7048617368206d69736d61746368006044820152606401610a59565b60008760368151811061279d5761279d6141ac565b0160209081015160405160f89190911c92506000913091639f070142916127c6918d9101614319565b60408051601f1981840301815291905260376127e286826145d6565b6040518463ffffffff1660e01b8152600401612800939291906145e9565b600060405180830381865afa15801561281d573d6000803e3d6000fd5b505050506040513d6000823e601f3d908101601f19168201604052612845919081019061465e565b905060008c61289d57601f8260405161285e9190614319565b9081526040805191829003602001822082820190915260028282826020028201915b8154815260200190600101908083116128805750505050506128f3565b60405180604001604052807f46bfdfbddbc22d475a21be7fb6fb597a9e7aca90a4e76ba93a19b26985c87a1581526020017fa0e41b38419d2837cf8ea557f91b638c01c12a70230724ef06825f2393a76a708152505b905060007f000000000000000000000000000000000000000000000000000000000000000073ffffffffffffffffffffffffffffffffffffffff1663e60b57048d8d8d8d8d60405180604001604052808f81526020018e81525060405180604001604052808b60006002811061296b5761296b6141ac565b602002015181526020018b600160028110612988576129886141ac565b60200201518152506040518863ffffffff1660e01b81526004016129b297969594939291906146b6565b6020604051808303816000875af11580156129d1573d6000803e3d6000fd5b505050506040513d601f19601f820116820180604052508101906129f59190614335565b90508d80612a01575080155b15612a1b5760019c50505050505050505050505050610ba7565b5060009f9e505050505050505050505050505050565b6000806000806000806000806000612a488c612eac565b985098509850985098509850985098505089612a64578a612a6d565b612a6d85614594565b612a7686614594565b14612ac35760405162461bcd60e51b815260206004820152601f60248201527f6368616c6c656e6765202620757365724f7048617368206d69736d61746368006044820152606401610a59565b60008a612b1957601f82604051612ada9190614319565b9081526040805191829003602001822082820190915260028282826020028201915b815481526020019060010190808311612afc575050505050612b6f565b60405180604001604052807f46bfdfbddbc22d475a21be7fb6fb597a9e7aca90a4e76ba93a19b26985c87a1581526020017fa0e41b38419d2837cf8ea557f91b638c01c12a70230724ef06825f2393a76a708152505b905060007f000000000000000000000000000000000000000000000000000000000000000073ffffffffffffffffffffffffffffffffffffffff1663e60b57048b8b8b8b8b60405180604001604052808d81526020018c81525060405180604001604052808b600060028110612be757612be76141ac565b602002015181526020018b600160028110612c0457612c046141ac565b60200201518152506040518863ffffffff1660e01b8152600401612c2e97969594939291906146b6565b6020604051808303816000875af1158015612c4d573d6000803e3d6000fd5b505050506040513d601f19601f82011682018060405250810190612c719190614335565b90508b80612c7d575080155b15612c955760019a5050505050505050505050610ba7565b5060009d9c50505050505050505050505050565b6000612cb3611883565b15612d4c5760405162461bcd60e51b815260206004820152604e60248201527f43616e277420757365204c6f67696e2053657276696365207369676e6174757260448201527f6520666f7220616e797468696e6720656c7365207468616e207468652066697260648201527f7374207472616e73616374696f6e000000000000000000000000000000000000608482015260a401610a59565b600080600080612d5b86612eee565b945094509450945050601d604051602001612d769190614500565b6040516020818303038152906040528051906020012084604051602001612d9d9190614319565b6040516020818303038152906040528051906020012014612e005760405162461bcd60e51b815260206004820152601760248201527f696e636f7272656374206c6f67696e20666f72207369670000000000000000006044820152606401610a59565b612e0d8383836000612f23565b50600095945050505050565b612e22816123fe565b60405173ffffffffffffffffffffffffffffffffffffffff8216907fbc7cd75a20ee27fd9adebab32041f755214dbc6bffa90cc0225b39da2e5c2d3b90600090a250565b6060610ba78383604051806060016040528060278152602001614ae660279139613244565b80516a636f6e736f6c652e6c6f67602083016000808483855afa5050505050565b60008060608060606000806000606089806020019051810190612ecf919061476d565b9850985098509850985098509850985098509193959799909294969850565b6000606080612efb6137ad565b606085806020019051810190612f1191906148c9565b939a9299509097509550909350915050565b80612f7b57601e5460ff1615612f7b5760405162461bcd60e51b815260206004820152601860248201527f4669727374207369676e657220616c72656164792073657400000000000000006044820152606401610a59565b604051600090612fb6907f020000000000000000000000000000000000000000000000000000000000000090601d908890889060200161498b565b604051602081830303815290604052805190602001209050612fef604051806060016040528060368152602001614ab060369139612513565b612ff8816132c9565b6130018361333c565b7f19457468657265756d205369676e6564204d6573736167653a0a3332000000006000908152601c829052603c9020613039906132c9565b6130986040518060400160405280600c81526020017f6c6f67696e5365727669636500000000000000000000000000000000000000008152507f00000000000000000000000000000000000000000000000000000000000000006133ad565b6131176040518060400160405280600981526020017f7265636f766572656400000000000000000000000000000000000000000000008152506131128561310c857f19457468657265756d205369676e6564204d6573736167653a0a3332000000006000908152601c91909152603c902090565b90613420565b6133ad565b613138604051806060016040528060378152602001614b0d60379139612513565b7f19457468657265756d205369676e6564204d6573736167653a0a3332000000006000908152601c829052603c812061317290859061310c565b90508261323a577f000000000000000000000000000000000000000000000000000000000000000073ffffffffffffffffffffffffffffffffffffffff168173ffffffffffffffffffffffffffffffffffffffff161461323a5760405162461bcd60e51b815260206004820152602160248201527f696e636f7272656374206c6f67696e2073657276696365207369676e6174757260448201527f65000000000000000000000000000000000000000000000000000000000000006064820152608401610a59565b610e1c8686612294565b60606000808573ffffffffffffffffffffffffffffffffffffffff168560405161326e9190614319565b600060405180830381855af49150503d80600081146132a9576040519150601f19603f3d011682016040523d82523d6000602084013e6132ae565b606091505b50915091506132bf86838387613444565b9695505050505050565b610b85816040516024016132df91815260200190565b60408051601f198184030181529190526020810180517bffffffffffffffffffffffffffffffffffffffffffffffffffffffff167f27b7cf8500000000000000000000000000000000000000000000000000000000179052612e8b565b610b85816040516024016133509190613f45565b60408051601f198184030181529190526020810180517bffffffffffffffffffffffffffffffffffffffffffffffffffffffff167f0be77f5600000000000000000000000000000000000000000000000000000000179052612e8b565b61113782826040516024016133c3929190614a77565b60408051601f198184030181529190526020810180517bffffffffffffffffffffffffffffffffffffffffffffffffffffffff167f319af33300000000000000000000000000000000000000000000000000000000179052612e8b565b600080600061342f85856134ca565b9150915061343c8161350f565b509392505050565b606083156134c05782516000036134b95773ffffffffffffffffffffffffffffffffffffffff85163b6134b95760405162461bcd60e51b815260206004820152601d60248201527f416464726573733a2063616c6c20746f206e6f6e2d636f6e74726163740000006044820152606401610a59565b5081611533565b6115338383613674565b60008082516041036135005760208301516040840151606085015160001a6134f48782858561369e565b94509450505050613508565b506000905060025b9250929050565b600081600481111561352357613523614370565b0361352b5750565b600181600481111561353f5761353f614370565b0361358c5760405162461bcd60e51b815260206004820152601860248201527f45434453413a20696e76616c6964207369676e617475726500000000000000006044820152606401610a59565b60028160048111156135a0576135a0614370565b036135ed5760405162461bcd60e51b815260206004820152601f60248201527f45434453413a20696e76616c6964207369676e6174757265206c656e677468006044820152606401610a59565b600381600481111561360157613601614370565b03610b855760405162461bcd60e51b815260206004820152602260248201527f45434453413a20696e76616c6964207369676e6174757265202773272076616c60448201527f75650000000000000000000000000000000000000000000000000000000000006064820152608401610a59565b8151156136845781518083602001fd5b8060405162461bcd60e51b8152600401610a599190613f45565b6000807f7fffffffffffffffffffffffffffffff5d576e7357a4501ddfe92f46681b20a08311156136d55750600090506003613766565b6040805160008082526020820180845289905260ff881692820192909252606081018690526080810185905260019060a0016020604051602081039080840390855afa158015613729573d6000803e3d6000fd5b5050604051601f19015191505073ffffffffffffffffffffffffffffffffffffffff811661375f57600060019250925050613766565b9150600090505b94509492505050565b826002810192821561379d579160200282015b8281111561379d578251825591602001919060010190613782565b506137a99291506137cb565b5090565b60405180604001604052806002906020820280368337509192915050565b5b808211156137a957600081556001016137cc565b73ffffffffffffffffffffffffffffffffffffffff81168114610b8557600080fd5b60008083601f84011261381457600080fd5b50813567ffffffffffffffff81111561382c57600080fd5b60208301915083602082850101111561350857600080fd5b60008060008060008060008060c0898b03121561386057600080fd5b883561386b816137e0565b9750602089013561387b816137e0565b9650604089013561388b816137e0565b955060608901359450608089013567ffffffffffffffff808211156138af57600080fd5b6138bb8c838d01613802565b909650945060a08b01359150808211156138d457600080fd5b506138e18b828c01613802565b999c989b5096995094979396929594505050565b60006020828403121561390757600080fd5b81357fffffffff0000000000000000000000000000000000000000000000000000000081168114610ba757600080fd5b60008060008060006080868803121561394f57600080fd5b853561395a816137e0565b9450602086013561396a816137e0565b935060408601359250606086013567ffffffffffffffff81111561398d57600080fd5b61399988828901613802565b969995985093965092949392505050565b6020808252825182820181905260009190848201906040850190845b818110156139f857835173ffffffffffffffffffffffffffffffffffffffff16835292840192918401916001016139c6565b50909695505050505050565b60005b83811015613a1f578181015183820152602001613a07565b50506000910152565b60008151808452613a40816020860160208601613a04565b601f01601f19169290920160200192915050565b600082825180855260208086019550808260051b84010181860160005b84811015613a9f57601f19868403018952613a8d838351613a28565b98840198925090830190600101613a71565b5090979650505050505050565b60006020808301818452808551808352604092508286019150828160051b87010184880160005b83811015613b46578883037fffffffffffffffffffffffffffffffffffffffffffffffffffffffffffffffc00185528151805173ffffffffffffffffffffffffffffffffffffffff168452870151878401879052613b3387850182613a54565b9588019593505090860190600101613ad3565b509098975050505050505050565b600060208284031215613b6657600080fd5b8135610ba7816137e0565b600080600060608486031215613b8657600080fd5b833567ffffffffffffffff811115613b9d57600080fd5b84016101608187031215613bb057600080fd5b95602085013595506040909401359392505050565b60008083601f840112613bd757600080fd5b50813567ffffffffffffffff811115613bef57600080fd5b6020830191508360208260051b850101111561350857600080fd5b60008060008060008060608789031215613c2357600080fd5b863567ffffffffffffffff80821115613c3b57600080fd5b613c478a838b01613bc5565b90985096506020890135915080821115613c6057600080fd5b613c6c8a838b01613bc5565b90965094506040890135915080821115613c8557600080fd5b50613c9289828a01613bc5565b979a9699509497509295939492505050565b60008060408385031215613cb757600080fd5b8235613cc2816137e0565b946020939093013593505050565b7f4e487b7100000000000000000000000000000000000000000000000000000000600052604160045260246000fd5b604051601f8201601f1916810167ffffffffffffffff81118282101715613d2857613d28613cd0565b604052919050565b600067ffffffffffffffff821115613d4a57613d4a613cd0565b50601f01601f191660200190565b60008060408385031215613d6b57600080fd5b8235613d76816137e0565b9150602083013567ffffffffffffffff811115613d9257600080fd5b8301601f81018513613da357600080fd5b8035613db6613db182613d30565b613cff565b818152866020838501011115613dcb57600080fd5b816020840160208301376000602083830101528093505050509250929050565b60006020808301818452808551808352604092508286019150828160051b8701018488016000805b84811015613ed2578984037fffffffffffffffffffffffffffffffffffffffffffffffffffffffffffffffc00186528251805173ffffffffffffffffffffffffffffffffffffffff168552880151888501889052805188860181905290890190839060608701905b80831015613ebd5783517fffffffff00000000000000000000000000000000000000000000000000000000168252928b019260019290920191908b0190613e7b565b50978a01979550505091870191600101613e13565b50919998505050505050505050565b602081526000610ba76020830184613a54565b60008060008060608587031215613f0a57600080fd5b843567ffffffffffffffff811115613f2157600080fd5b613f2d87828801613802565b90989097506020870135966040013595509350505050565b602081526000610ba76020830184613a28565b60008060008060608587031215613f6e57600080fd5b8435613f79816137e0565b935060208501359250604085013567ffffffffffffffff811115613f9c57600080fd5b613fa887828801613802565b95989497509550505050565b60008060008060008060008060a0898b031215613fd057600080fd5b8835613fdb816137e0565b97506020890135613feb816137e0565b9650604089013567ffffffffffffffff8082111561400857600080fd5b6140148c838d01613bc5565b909850965060608b013591508082111561402d57600080fd5b6140398c838d01613bc5565b909650945060808b01359150808211156138d457600080fd5b60008060006060848603121561406757600080fd5b833567ffffffffffffffff81111561407e57600080fd5b61408a86828701613802565b909450925050606084018510156140a057600080fd5b6020840190509250925092565b60008060008060008060a087890312156140c657600080fd5b86356140d1816137e0565b955060208701356140e1816137e0565b94506040870135935060608701359250608087013567ffffffffffffffff81111561410b57600080fd5b613c9289828a01613802565b6000806020838503121561412a57600080fd5b823567ffffffffffffffff81111561414157600080fd5b61414d85828601613802565b90969095509350505050565b600181811c9082168061416d57607f821691505b6020821081036141a6577f4e487b7100000000000000000000000000000000000000000000000000000000600052602260045260246000fd5b50919050565b7f4e487b7100000000000000000000000000000000000000000000000000000000600052603260045260246000fd5b60008083357fffffffffffffffffffffffffffffffffffffffffffffffffffffffffffffffe184360301811261421057600080fd5b83018035915067ffffffffffffffff82111561422b57600080fd5b60200191503681900382131561350857600080fd5b7f4e487b7100000000000000000000000000000000000000000000000000000000600052601160045260246000fd5b60007fffffffffffffffffffffffffffffffffffffffffffffffffffffffffffffffff82036142a0576142a0614240565b5060010190565b600080858511156142b757600080fd5b838611156142c457600080fd5b5050820193919092039150565b7fffffffff00000000000000000000000000000000000000000000000000000000831681526000825161430b816004850160208701613a04565b919091016004019392505050565b6000825161432b818460208701613a04565b9190910192915050565b60006020828403121561434757600080fd5b81518015158114610ba757600080fd5b60006020828403121561436957600080fd5b5051919050565b7f4e487b7100000000000000000000000000000000000000000000000000000000600052602160045260246000fd5b600060ff821660ff81036143b5576143b5614240565b60010192915050565b601f82111561196857600081815260208120601f850160051c810160208610156143e55750805b601f850160051c820191505b81811015610e1c578281556001016143f1565b67ffffffffffffffff83111561441c5761441c613cd0565b6144308361442a8354614159565b836143be565b6000601f841160018114614482576000851561444c5750838201355b7fffffffffffffffffffffffffffffffffffffffffffffffffffffffffffffffff600387901b1c1916600186901b178355610ec3565b600083815260209020601f19861690835b828110156144b35786850135825560209485019460019092019101614493565b50868210156144ee577fffffffffffffffffffffffffffffffffffffffffffffffffffffffffffffffff60f88860031b161c19848701351681555b505060018560011b0183555050505050565b600080835461450e81614159565b60018281168015614526576001811461455957614588565b7fffffffffffffffffffffffffffffffffffffffffffffffffffffffffffffff0084168752821515830287019450614588565b8760005260208060002060005b8581101561457f5781548a820152908401908201614566565b50505082870194505b50929695505050505050565b805160208083015191908110156141a6577fffffffffffffffffffffffffffffffffffffffffffffffffffffffffffffffff60209190910360031b1b16919050565b808201808211156107c3576107c3614240565b6060815260006145fc6060830186613a28565b60208301949094525060400152919050565b600061461c613db184613d30565b905082815283838301111561463057600080fd5b610ba7836020830184613a04565b600082601f83011261464f57600080fd5b610ba78383516020850161460e565b60006020828403121561467057600080fd5b815167ffffffffffffffff81111561468757600080fd5b6115338482850161463e565b8060005b6002811015611654578151845260209384019390910190600101614697565b60006101207fff000000000000000000000000000000000000000000000000000000000000008a1683528060208401526146f28184018a613a28565b905082810360408401526147068189613a28565b9050828103606084015261471a8188613a28565b91505084608083015261473060a0830185614693565b6117c060e0830184614693565b80517fff000000000000000000000000000000000000000000000000000000000000008116811461179957600080fd5b60008060008060008060008060006101208a8c03121561478c57600080fd5b6147958a61473d565b98506147a360208b0161473d565b975060408a015167ffffffffffffffff808211156147c057600080fd5b6147cc8d838e0161463e565b985060608c01519150808211156147e257600080fd5b6147ee8d838e0161463e565b975060808c015191508082111561480457600080fd5b6148108d838e0161463e565b965060a08c0151955060c08c0151945060e08c015193506101008c015191508082111561483c57600080fd5b506148498c828d0161463e565b9150509295985092959850929598565b600082601f83011261486a57600080fd5b6040516040810181811067ffffffffffffffff8211171561488d5761488d613cd0565b80604052508060408401858111156148a457600080fd5b845b818110156148be5780518352602092830192016148a6565b509195945050505050565b600080600080600060c086880312156148e157600080fd5b6148ea8661473d565b9450602086015167ffffffffffffffff8082111561490757600080fd5b818801915088601f83011261491b57600080fd5b61492a8983516020850161460e565b9550604088015191508082111561494057600080fd5b61494c89838a0161463e565b945061495b8960608a01614859565b935060a088015191508082111561497157600080fd5b5061497e8882890161463e565b9150509295509295909350565b7fff00000000000000000000000000000000000000000000000000000000000000851681526000602060a081840152600086546149c781614159565b8060a087015260c06001808416600081146149e95760018114614a2157614a4f565b7fffffffffffffffffffffffffffffffffffffffffffffffffffffffffffffff008516838a01528284151560051b8a01019550614a4f565b8b6000528660002060005b85811015614a475781548b8201860152908301908801614a2c565b8a0184019650505b50505050508381036040850152614a668187613a28565b925050506107eb6060830184614693565b604081526000614a8a6040830185613a28565b905073ffffffffffffffffffffffffffffffffffffffff83166020830152939250505056fe2d2d2d2d2d2d2d2d2d2d2d2d2d4c4f47494e205345525649434520564552494649434154494f4e2d2d2d2d2d2d2d2d2d2d2d2d2d2d2d416464726573733a206c6f772d6c6576656c2064656c65676174652063616c6c206661696c65642d2d2d2d2d2d2d2d2d2d2d2d2d2f4c4f47494e205345525649434520564552494649434154494f4e2d2d2d2d2d2d2d2d2d2d2d2d2d2d2d030000000000000000000000000000000000000000000000000000000000000045000000000000000000000000000000000000000000000000000000000000000000000000000000000000000000000000000000000000000000000000000120000000000000000000000000000000000000000000000000000000000000020000000000000000000000000000000000000000000000000000000000000002c000000000000000000000000000000000000000000000000000000000000000276de7996aad706bdff13af9458d927c8101ee7aa067870211c37a3a92da214fb717fb7806e6ee6f39a3bd4bc1296fc49a2ec4a24a73ef159485abbdfab8af2d58000000000000000000000000000000000000000000000000000000000000030000000000000000000000000000000000000000000000000000000000000000a449960de5880e8c687434170f6476605b8fe4aeb9a28632c7995cf3ba831d97634500000000adce000235bcc60a648b0b25f1f055030020233214ae5885adf752734b0712d27a93f40a83ae81b3d04d0a4524f4e46fdea0a50102032620012158209dca86cce5904e0094b6e86a8caa7273d0f32d49c57471ccf91baa4d7e8432cd2258207e2e3140629cebf02b40005347ed672242bdda4366e891d3acfe1f00d9bc93500000000000000000000000000000000000000000000000000000000000000000000000000000000000000000000000000000000000000000000000897b2274797065223a22776562617574686e2e637265617465222c226368616c6c656e6765223a2238517170504951507a503036612d6d7763576956472d5730565267735a797a32344b6f4a58787579644430222c226f726967696e223a22687474703a2f2f6c6f63616c686f73743a34333337222c2263726f73734f726967696e223a66616c73657d00000000000000000000000000000000000000000000000000000000000000000000000000000000000000000000000000000000000020f10aa93c840fccfd3a6be9b07168951be5b455182c672cf6e0aa095f1bb2743d00000000000000000000000000000000000000000000000000000000000001c0020000000000000000000000000000000000000000000000000000000000000000000000000000000000000000000000000000000000000000000000000000c000000000000000000000000000000000000000000000000000000000000001009dca86cce5904e0094b6e86a8caa7273d0f32d49c57471ccf91baa4d7e8432cd7e2e3140629cebf02b40005347ed672242bdda4366e891d3acfe1f00d9bc9350000000000000000000000000000000000000000000000000000000000000014000000000000000000000000000000000000000000000000000000000000000036b766e00000000000000000000000000000000000000000000000000000000000000000000000000000000000000000000000000000000000000000000000020233214ae5885adf752734b0712d27a93f40a83ae81b3d04d0a4524f4e46fdea000000000000000000000000000000000000000000000000000000000000000415d02932d0bbc02fbac9a1445e53b5b686fd048f9c1f697d874e40cd3693379bf0dd0db93dd107686abac7021b0a234589cc8606a50439d2174e762916164c35d1c00000000000000000000000000000000000000000000000000000000000000",
    "linkReferences": {}
  },
  "methodIdentifiers": {
    "accountImplementation()": "11464fbe",
    "createAccount(string,bytes,uint256[2],uint256)": "a4164f86",
    "createAccount(string,uint256)": "6586ace6",
    "getAddress(string,uint256)": "21ec1253"
  },
  "id": 65
}